{
  "contractName": "CloneFactory",
  "abi": [
    {
      "inputs": [
        {
          "internalType": "address",
          "name": "prototype",
          "type": "address"
        }
      ],
      "name": "clone",
      "outputs": [
        {
          "internalType": "address",
          "name": "proxy",
          "type": "address"
        }
      ],
      "stateMutability": "nonpayable",
      "type": "function"
    }
  ],
  "bytecode": "0x608060405234801561001057600080fd5b5061010e806100206000396000f3fe6080604052348015600f57600080fd5b506004361060285760003560e01c80638124b78e14602d575b600080fd5b603c603836600460aa565b6058565b6040516001600160a01b03909116815260200160405180910390f35b6000808260601b9050604051733d602d80600a3d3981f3363d3d373d3d3d363d7360601b81528160148201526e5af43d82803e903d91602b57fd5bf360881b60288201526037816000f0949350505050565b60006020828403121560bb57600080fd5b81356001600160a01b038116811460d157600080fd5b939250505056fea26469706673582212209cff886cfe85cb1140a802d667a3cde971ee1f6eb80e243e9746d6688188724e64736f6c63430008130033",
  "immutableReferences": {},
  "source": "// SPDX-License-Identifier: UNLICENSED\n\n// File: contracts/lib/CloneFactory.sol\n\npragma solidity 0.8.19;\npragma experimental ABIEncoderV2;\n\ninterface ICloneFactory {\n    function clone(address prototype) external returns (address proxy);\n}\n\n// introduction of proxy mode design: https://docs.openzeppelin.com/upgrades/2.8/\n// minimum implementation of transparent proxy: https://eips.ethereum.org/EIPS/eip-1167\n\ncontract CloneFactory is ICloneFactory {\n    function clone(address prototype) external override returns (address proxy) {\n        bytes20 targetBytes = bytes20(prototype);\n        assembly {\n            let clone := mload(0x40)\n            mstore(clone, 0x3d602d80600a3d3981f3363d3d373d3d3d363d73000000000000000000000000)\n            mstore(add(clone, 0x14), targetBytes)\n            mstore(\n                add(clone, 0x28),\n                0x5af43d82803e903d91602b57fd5bf30000000000000000000000000000000000\n            )\n            proxy := create(0, clone, 0x37)\n        }\n        return proxy;\n    }\n}\n\n// File: contracts/lib/InitializableOwnable.sol\n\n\n/**\n * @title Ownable\n *\n * @notice Ownership related functions\n */\ncontract InitializableOwnable {\n    address public _OWNER_;\n    address public _NEW_OWNER_;\n    bool internal _INITIALIZED_;\n\n    // ============ Events ============\n\n    event OwnershipTransferPrepared(address indexed previousOwner, address indexed newOwner);\n\n    event OwnershipTransferred(address indexed previousOwner, address indexed newOwner);\n\n    // ============ Modifiers ============\n\n    modifier notInitialized() {\n        require(!_INITIALIZED_, \"DODO_INITIALIZED\");\n        _;\n    }\n\n    modifier onlyOwner() {\n        require(msg.sender == _OWNER_, \"NOT_OWNER\");\n        _;\n    }\n\n    // ============ Functions ============\n\n    function initOwner(address newOwner) public notInitialized {\n        _INITIALIZED_ = true;\n        _OWNER_ = newOwner;\n    }\n\n    function transferOwnership(address newOwner) public onlyOwner {\n        emit OwnershipTransferPrepared(_OWNER_, newOwner);\n        _NEW_OWNER_ = newOwner;\n    }\n\n    function claimOwnership() public {\n        require(msg.sender == _NEW_OWNER_, \"INVALID_CLAIM\");\n        emit OwnershipTransferred(_OWNER_, _NEW_OWNER_);\n        _OWNER_ = _NEW_OWNER_;\n        _NEW_OWNER_ = address(0);\n    }\n}\n\n// File: contracts/Factory/ERC20V1Factory.sol\n\ninterface IStdERC20 {\n    function init(\n        address _creator,\n        uint256 _totalSupply,\n        string memory _name,\n        string memory _symbol,\n        uint8 _decimals\n    ) external;\n}\n\n/**\n * @title ERC20V1Factory\n *\n * @notice Help user to create erc20 token\n */\ncontract ERC20V1Factory is InitializableOwnable {\n    // ============ Templates ============\n\n    address public immutable _CLONE_FACTORY_;\n    address public _ERC20_TEMPLATE_;\n    uint256 public _CREATE_FEE_;\n\n    // ============ Events ============\n    // 0 Std \n    event NewERC20(address erc20, address creator, uint256 erc20Type);\n    event ChangeCreateFee(uint256 newFee);\n    event Withdraw(address account, uint256 amount);\n    event ChangeStdTemplate(address newStdTemplate);\n\n    // ============ Registry ============\n    // creator -> token address list\n    mapping(address => address[]) public _USER_STD_REGISTRY_;\n\n    // ============ Functions ============\n\n    fallback() external payable {}\n\n    receive() external payable {}\n\n    constructor(\n        address cloneFactory,   //代码克隆，通过合约创建合约\n        address erc20Template,  //提供标准的ERC20代币模版，3种模版，通过模版克隆出来代币\n        uint256 createFee   //创建的费用\n    ) {\n        _CLONE_FACTORY_ = cloneFactory;\n        _ERC20_TEMPLATE_ = erc20Template;\n        _CREATE_FEE_ = createFee;\n    }\n\n    // 使用了 _ERC20_TEMPLATE_ 模版，创建标准ERC20代币\n    function createStdERC20(\n        uint256 totalSupply,\n        string memory name,\n        string memory symbol,\n        uint8 decimals\n    ) external payable returns (address newERC20) {\n        require(msg.value >= _CREATE_FEE_, \"CREATE_FEE_NOT_ENOUGH\");    //判断创建合约账户有没有_CREATE_FEE_，没有则拒绝\n        newERC20 = ICloneFactory(_CLONE_FACTORY_).clone(_ERC20_TEMPLATE_);  //通过合约创建一个合约，返回新的合约地址（说明合约副本又重新部署了一份）\n        IStdERC20(newERC20).init(msg.sender, totalSupply, name, symbol, decimals);\n        _USER_STD_REGISTRY_[msg.sender].push(newERC20); //k 创建人地址，v ERC20代币合约地址\n        emit NewERC20(newERC20, msg.sender, 0);\n    }\n\n\n    // ============ View ============\n    //返回 创建人创建的合约地址\n    function getTokenByUser(address user) \n        external\n        view\n        returns (address[] memory stds)\n    {\n        return (_USER_STD_REGISTRY_[user]);\n    }\n\n    // ============ Ownable =============\n    //动态修改fee\n    function changeCreateFee(uint256 newFee) external onlyOwner {\n        _CREATE_FEE_ = newFee;\n        emit ChangeCreateFee(newFee);\n    }\n\n    //取钱\n    function withdraw() external onlyOwner {\n        uint256 amount = address(this).balance;\n        payable(msg.sender).transfer(amount);\n        emit Withdraw(msg.sender, amount);\n    }\n\n    //升级代币模版\n    function updateStdTemplate(address newStdTemplate) external onlyOwner {\n        _ERC20_TEMPLATE_ = newStdTemplate;\n        emit ChangeStdTemplate(newStdTemplate);\n    }\n}",
  "sourcePath": "/Users/zhouzhou/contract_workspace/fourth-contract-project/contracts/ERC20V1Factory.sol",
  "compiler": {
    "name": "solc",
    "version": "0.8.19+commit.7dd6d404.Emscripten.clang"
  },
  "schemaVersion": "3.4.13",
  "updatedAt": "2023-05-05T10:32:23.568Z",
  "devdoc": {
    "kind": "dev",
    "methods": {},
    "version": 1
  },
  "userdoc": {
    "kind": "user",
    "methods": {},
    "version": 1
  }
}