{
  "contractName": "ERC20Ext",
  "abi": [
    {
      "inputs": [],
      "stateMutability": "nonpayable",
      "type": "constructor"
    },
    {
      "anonymous": false,
      "inputs": [
        {
          "indexed": true,
          "internalType": "address",
          "name": "owner",
          "type": "address"
        },
        {
          "indexed": true,
          "internalType": "address",
          "name": "spender",
          "type": "address"
        },
        {
          "indexed": false,
          "internalType": "uint256",
          "name": "value",
          "type": "uint256"
        }
      ],
      "name": "Approval",
      "type": "event"
    },
    {
      "anonymous": false,
      "inputs": [
        {
          "indexed": true,
          "internalType": "address",
          "name": "previousOwner",
          "type": "address"
        },
        {
          "indexed": true,
          "internalType": "address",
          "name": "newOwner",
          "type": "address"
        }
      ],
      "name": "OwnershipTransferred",
      "type": "event"
    },
    {
      "anonymous": false,
      "inputs": [
        {
          "indexed": true,
          "internalType": "address",
          "name": "from",
          "type": "address"
        },
        {
          "indexed": true,
          "internalType": "address",
          "name": "to",
          "type": "address"
        },
        {
          "indexed": false,
          "internalType": "uint256",
          "name": "value",
          "type": "uint256"
        }
      ],
      "name": "Transfer",
      "type": "event"
    },
    {
      "inputs": [],
      "name": "__decimals",
      "outputs": [
        {
          "internalType": "uint8",
          "name": "",
          "type": "uint8"
        }
      ],
      "stateMutability": "view",
      "type": "function",
      "constant": true
    },
    {
      "inputs": [],
      "name": "__name",
      "outputs": [
        {
          "internalType": "string",
          "name": "",
          "type": "string"
        }
      ],
      "stateMutability": "view",
      "type": "function",
      "constant": true
    },
    {
      "inputs": [],
      "name": "__symbol",
      "outputs": [
        {
          "internalType": "string",
          "name": "",
          "type": "string"
        }
      ],
      "stateMutability": "view",
      "type": "function",
      "constant": true
    },
    {
      "inputs": [],
      "name": "__totalSupply",
      "outputs": [
        {
          "internalType": "uint256",
          "name": "",
          "type": "uint256"
        }
      ],
      "stateMutability": "view",
      "type": "function",
      "constant": true
    },
    {
      "inputs": [
        {
          "internalType": "address",
          "name": "owner",
          "type": "address"
        },
        {
          "internalType": "address",
          "name": "spender",
          "type": "address"
        }
      ],
      "name": "allowance",
      "outputs": [
        {
          "internalType": "uint256",
          "name": "",
          "type": "uint256"
        }
      ],
      "stateMutability": "view",
      "type": "function",
      "constant": true
    },
    {
      "inputs": [
        {
          "internalType": "address",
          "name": "spender",
          "type": "address"
        },
        {
          "internalType": "uint256",
          "name": "amount",
          "type": "uint256"
        }
      ],
      "name": "approve",
      "outputs": [
        {
          "internalType": "bool",
          "name": "",
          "type": "bool"
        }
      ],
      "stateMutability": "nonpayable",
      "type": "function"
    },
    {
      "inputs": [
        {
          "internalType": "address",
          "name": "account",
          "type": "address"
        }
      ],
      "name": "balanceOf",
      "outputs": [
        {
          "internalType": "uint256",
          "name": "",
          "type": "uint256"
        }
      ],
      "stateMutability": "view",
      "type": "function",
      "constant": true
    },
    {
      "inputs": [],
      "name": "burnRatio",
      "outputs": [
        {
          "internalType": "uint256",
          "name": "",
          "type": "uint256"
        }
      ],
      "stateMutability": "view",
      "type": "function",
      "constant": true
    },
    {
      "inputs": [],
      "name": "decimals",
      "outputs": [
        {
          "internalType": "uint8",
          "name": "",
          "type": "uint8"
        }
      ],
      "stateMutability": "view",
      "type": "function",
      "constant": true
    },
    {
      "inputs": [
        {
          "internalType": "address",
          "name": "spender",
          "type": "address"
        },
        {
          "internalType": "uint256",
          "name": "subtractedValue",
          "type": "uint256"
        }
      ],
      "name": "decreaseAllowance",
      "outputs": [
        {
          "internalType": "bool",
          "name": "",
          "type": "bool"
        }
      ],
      "stateMutability": "nonpayable",
      "type": "function"
    },
    {
      "inputs": [],
      "name": "feeAddress",
      "outputs": [
        {
          "internalType": "address",
          "name": "",
          "type": "address"
        }
      ],
      "stateMutability": "view",
      "type": "function",
      "constant": true
    },
    {
      "inputs": [],
      "name": "feeRatio",
      "outputs": [
        {
          "internalType": "uint256",
          "name": "",
          "type": "uint256"
        }
      ],
      "stateMutability": "view",
      "type": "function",
      "constant": true
    },
    {
      "inputs": [
        {
          "internalType": "address",
          "name": "spender",
          "type": "address"
        },
        {
          "internalType": "uint256",
          "name": "addedValue",
          "type": "uint256"
        }
      ],
      "name": "increaseAllowance",
      "outputs": [
        {
          "internalType": "bool",
          "name": "",
          "type": "bool"
        }
      ],
      "stateMutability": "nonpayable",
      "type": "function"
    },
    {
      "inputs": [],
      "name": "name",
      "outputs": [
        {
          "internalType": "string",
          "name": "",
          "type": "string"
        }
      ],
      "stateMutability": "view",
      "type": "function",
      "constant": true
    },
    {
      "inputs": [],
      "name": "owner",
      "outputs": [
        {
          "internalType": "address",
          "name": "",
          "type": "address"
        }
      ],
      "stateMutability": "view",
      "type": "function",
      "constant": true
    },
    {
      "inputs": [],
      "name": "renounceOwnership",
      "outputs": [],
      "stateMutability": "nonpayable",
      "type": "function"
    },
    {
      "inputs": [],
      "name": "symbol",
      "outputs": [
        {
          "internalType": "string",
          "name": "",
          "type": "string"
        }
      ],
      "stateMutability": "view",
      "type": "function",
      "constant": true
    },
    {
      "inputs": [],
      "name": "totalSupply",
      "outputs": [
        {
          "internalType": "uint256",
          "name": "",
          "type": "uint256"
        }
      ],
      "stateMutability": "view",
      "type": "function",
      "constant": true
    },
    {
      "inputs": [
        {
          "internalType": "address",
          "name": "from",
          "type": "address"
        },
        {
          "internalType": "address",
          "name": "to",
          "type": "address"
        },
        {
          "internalType": "uint256",
          "name": "amount",
          "type": "uint256"
        }
      ],
      "name": "transferFrom",
      "outputs": [
        {
          "internalType": "bool",
          "name": "",
          "type": "bool"
        }
      ],
      "stateMutability": "nonpayable",
      "type": "function"
    },
    {
      "inputs": [
        {
          "internalType": "address",
          "name": "newOwner",
          "type": "address"
        }
      ],
      "name": "transferOwnership",
      "outputs": [],
      "stateMutability": "nonpayable",
      "type": "function"
    },
    {
      "inputs": [
        {
          "internalType": "uint256",
          "name": "_feeRatio",
          "type": "uint256"
        },
        {
          "internalType": "uint256",
          "name": "_burnRatio",
          "type": "uint256"
        },
        {
          "internalType": "address",
          "name": "_feeAddress",
          "type": "address"
        }
      ],
      "name": "set",
      "outputs": [],
      "stateMutability": "nonpayable",
      "type": "function"
    },
    {
      "inputs": [
        {
          "internalType": "address",
          "name": "_account",
          "type": "address"
        },
        {
          "internalType": "uint256",
          "name": "_amount",
          "type": "uint256"
        }
      ],
      "name": "mint",
      "outputs": [],
      "stateMutability": "nonpayable",
      "type": "function"
    },
    {
      "inputs": [
        {
          "internalType": "uint256",
          "name": "_amount",
          "type": "uint256"
        }
      ],
      "name": "burn",
      "outputs": [],
      "stateMutability": "nonpayable",
      "type": "function"
    },
    {
      "inputs": [
        {
          "internalType": "address",
          "name": "_to",
          "type": "address"
        },
        {
          "internalType": "uint256",
          "name": "_amount",
          "type": "uint256"
        }
      ],
      "name": "transfer",
      "outputs": [
        {
          "internalType": "bool",
          "name": "",
          "type": "bool"
        }
      ],
      "stateMutability": "nonpayable",
      "type": "function"
    },
    {
      "inputs": [
        {
          "internalType": "address",
          "name": "_creator",
          "type": "address"
        },
        {
          "internalType": "uint256",
          "name": "_totalSupply",
          "type": "uint256"
        },
        {
          "internalType": "string",
          "name": "_name",
          "type": "string"
        },
        {
          "internalType": "string",
          "name": "_symbol",
          "type": "string"
        },
        {
          "internalType": "uint8",
          "name": "_decimals",
          "type": "uint8"
        }
      ],
      "name": "init",
      "outputs": [],
      "stateMutability": "nonpayable",
      "type": "function"
    }
  ],
  "bytecode": "0x60806040523480156200001157600080fd5b50604051806060016040528060228152602001620015e36022913960408051808201909152600380825262475a5760e81b602083015262000053838262000180565b50600462000062828262000180565b5050506200007f620000796200008560201b60201c565b62000089565b6200024c565b3390565b600580546001600160a01b038381166001600160a01b0319831681179093556040519116919082907f8be0079c531659141344cd1fd0a4f28419497f9722a3daafe3b4186f6b6457e090600090a35050565b634e487b7160e01b600052604160045260246000fd5b600181811c908216806200010657607f821691505b6020821081036200012757634e487b7160e01b600052602260045260246000fd5b50919050565b601f8211156200017b57600081815260208120601f850160051c81016020861015620001565750805b601f850160051c820191505b81811015620001775782815560010162000162565b5050505b505050565b81516001600160401b038111156200019c576200019c620000db565b620001b481620001ad8454620000f1565b846200012d565b602080601f831160018114620001ec5760008415620001d35750858301515b600019600386901b1c1916600185901b17855562000177565b600085815260208120601f198616915b828110156200021d57888601518255948401946001909101908401620001fc565b50858210156200023c5787850151600019600388901b60f8161c191681555b5050505050600190811b01905550565b611387806200025c6000396000f3fe608060405234801561001057600080fd5b50600436106101735760003560e01c8063715018a6116100de5780638ea2da7d11610097578063a9059cbb11610071578063a9059cbb14610301578063dd62ed3e14610314578063f2fde38b14610327578063fc90ef181461033a57600080fd5b80638ea2da7d146102d957806395d89b41146102e6578063a457c2d7146102ee57600080fd5b8063715018a6146102945780637269ada11461029c57806373ba8aff146102a457806382215cb1146102ad5780638a1017ed146102b55780638da5cb5b146102c857600080fd5b806340c10f191161013057806340c10f1914610206578063412753581461021b57806341744dd41461024657806342966c681461024f5780635192c82c1461026257806370a082311461026b57600080fd5b806306fdde0314610178578063095ea7b31461019657806318160ddd146101b957806323b872dd146101cb578063313ce567146101de57806339509351146101f3575b600080fd5b61018061034d565b60405161018d9190610eec565b60405180910390f35b6101a96101a4366004610f56565b6103df565b604051901515815260200161018d565b6002545b60405190815260200161018d565b6101a96101d9366004610f80565b6103f9565b60125b60405160ff909116815260200161018d565b6101a9610201366004610f56565b61041d565b610219610214366004610f56565b61043f565b005b600d5461022e906001600160a01b031681565b6040516001600160a01b03909116815260200161018d565b6101bd600b5481565b61021961025d366004610fbc565b61046c565b6101bd600c5481565b6101bd610279366004610fd5565b6001600160a01b031660009081526020819052604090205490565b6102196104f4565b610180610508565b6101bd600a5481565b610180610596565b6102196102c3366004610ff0565b6105a3565b6005546001600160a01b031661022e565b6008546101e19060ff1681565b6101806105d5565b6101a96102fc366004610f56565b6105e4565b6101a961030f366004610f56565b61065f565b6101bd610322366004611025565b6107ec565b610219610335366004610fd5565b610817565b6102196103483660046110fb565b610890565b60606003805461035c90611194565b80601f016020809104026020016040519081016040528092919081815260200182805461038890611194565b80156103d55780601f106103aa576101008083540402835291602001916103d5565b820191906000526020600020905b8154815290600101906020018083116103b857829003601f168201915b5050505050905090565b6000336103ed8185856108e4565b60019150505b92915050565b600033610407858285610a09565b610412858585610a83565b506001949350505050565b6000336103ed81858561043083836107ec565b61043a91906111e4565b6108e4565b610447610c27565b6104518282610c81565b80600a600082825461046391906111e4565b90915550505050565b336000908152602081905260409020548111156104d05760405162461bcd60e51b815260206004820152601b60248201527f6275726e20616d6f757420657863656564732062616c616e63652e000000000060448201526064015b60405180910390fd5b6104da3382610d40565b80600a60008282546104ec91906111f7565b909155505050565b6104fc610c27565b6105066000610e6f565b565b6007805461051590611194565b80601f016020809104026020016040519081016040528092919081815260200182805461054190611194565b801561058e5780601f106105635761010080835404028352916020019161058e565b820191906000526020600020905b81548152906001019060200180831161057157829003601f168201915b505050505081565b6009805461051590611194565b6105ab610c27565b600b92909255600c55600d80546001600160a01b0319166001600160a01b03909216919091179055565b60606004805461035c90611194565b600033816105f282866107ec565b9050838110156106525760405162461bcd60e51b815260206004820152602560248201527f45524332303a2064656372656173656420616c6c6f77616e63652062656c6f77604482015264207a65726f60d81b60648201526084016104c7565b61041282868684036108e4565b336000908152602081905260408120548211156106be5760405162461bcd60e51b815260206004820181905260248201527f7472616e7366657220616d6f756e7420657863656564732062616c616e63652e60448201526064016104c7565b600d546001600160a01b031661070e5760405162461bcd60e51b81526020600482015260156024820152743332b2a0b2323932b9b9903737ba1039b2ba32b21760591b60448201526064016104c7565b6000600b54116107515760405162461bcd60e51b815260206004820152600e60248201526d3332b2903737ba1039b2ba32b21760911b60448201526064016104c7565b60006107746103e861076e600b5486610ec190919063ffffffff16565b90610ed4565b905060006107936103e861076e600c5487610ec190919063ffffffff16565b905060006107ab826107a58786610ee0565b90610ee0565b90506107b8338783610a83565b600d546107d09033906001600160a01b031685610a83565b81156107e0576107e03383610d40565b50600195945050505050565b6001600160a01b03918216600090815260016020908152604080832093909416825291909152205490565b61081f610c27565b6001600160a01b0381166108845760405162461bcd60e51b815260206004820152602660248201527f4f776e61626c653a206e6577206f776e657220697320746865207a65726f206160448201526564647265737360d01b60648201526084016104c7565b61088d81610e6f565b50565b600680546001600160a01b0319166001600160a01b038716179055600a84905560076108bc8482611258565b5060096108c98382611258565b506008805460ff191660ff9290921691909117905550505050565b6001600160a01b0383166109465760405162461bcd60e51b8152602060048201526024808201527f45524332303a20617070726f76652066726f6d20746865207a65726f206164646044820152637265737360e01b60648201526084016104c7565b6001600160a01b0382166109a75760405162461bcd60e51b815260206004820152602260248201527f45524332303a20617070726f766520746f20746865207a65726f206164647265604482015261737360f01b60648201526084016104c7565b6001600160a01b0383811660008181526001602090815260408083209487168084529482529182902085905590518481527f8c5be1e5ebec7d5bd14f71427d1e84f3dd0314c0f7b2291e5b200ac8c7c3b92591015b60405180910390a3505050565b6000610a1584846107ec565b90506000198114610a7d5781811015610a705760405162461bcd60e51b815260206004820152601d60248201527f45524332303a20696e73756666696369656e7420616c6c6f77616e636500000060448201526064016104c7565b610a7d84848484036108e4565b50505050565b6001600160a01b038316610ae75760405162461bcd60e51b815260206004820152602560248201527f45524332303a207472616e736665722066726f6d20746865207a65726f206164604482015264647265737360d81b60648201526084016104c7565b6001600160a01b038216610b495760405162461bcd60e51b815260206004820152602360248201527f45524332303a207472616e7366657220746f20746865207a65726f206164647260448201526265737360e81b60648201526084016104c7565b6001600160a01b03831660009081526020819052604090205481811015610bc15760405162461bcd60e51b815260206004820152602660248201527f45524332303a207472616e7366657220616d6f756e7420657863656564732062604482015265616c616e636560d01b60648201526084016104c7565b6001600160a01b03848116600081815260208181526040808320878703905593871680835291849020805487019055925185815290927fddf252ad1be2c89b69c2b068fc378daa952ba7f163c4a11628f55a4df523b3ef910160405180910390a3610a7d565b6005546001600160a01b031633146105065760405162461bcd60e51b815260206004820181905260248201527f4f776e61626c653a2063616c6c6572206973206e6f7420746865206f776e657260448201526064016104c7565b6001600160a01b038216610cd75760405162461bcd60e51b815260206004820152601f60248201527f45524332303a206d696e7420746f20746865207a65726f20616464726573730060448201526064016104c7565b8060026000828254610ce991906111e4565b90915550506001600160a01b038216600081815260208181526040808320805486019055518481527fddf252ad1be2c89b69c2b068fc378daa952ba7f163c4a11628f55a4df523b3ef910160405180910390a35050565b6001600160a01b038216610da05760405162461bcd60e51b815260206004820152602160248201527f45524332303a206275726e2066726f6d20746865207a65726f206164647265736044820152607360f81b60648201526084016104c7565b6001600160a01b03821660009081526020819052604090205481811015610e145760405162461bcd60e51b815260206004820152602260248201527f45524332303a206275726e20616d6f756e7420657863656564732062616c616e604482015261636560f01b60648201526084016104c7565b6001600160a01b0383166000818152602081815260408083208686039055600280548790039055518581529192917fddf252ad1be2c89b69c2b068fc378daa952ba7f163c4a11628f55a4df523b3ef91016109fc565b505050565b600580546001600160a01b038381166001600160a01b0319831681179093556040519116919082907f8be0079c531659141344cd1fd0a4f28419497f9722a3daafe3b4186f6b6457e090600090a35050565b6000610ecd8284611318565b9392505050565b6000610ecd828461132f565b6000610ecd82846111f7565b600060208083528351808285015260005b81811015610f1957858101830151858201604001528201610efd565b506000604082860101526040601f19601f8301168501019250505092915050565b80356001600160a01b0381168114610f5157600080fd5b919050565b60008060408385031215610f6957600080fd5b610f7283610f3a565b946020939093013593505050565b600080600060608486031215610f9557600080fd5b610f9e84610f3a565b9250610fac60208501610f3a565b9150604084013590509250925092565b600060208284031215610fce57600080fd5b5035919050565b600060208284031215610fe757600080fd5b610ecd82610f3a565b60008060006060848603121561100557600080fd5b833592506020840135915061101c60408501610f3a565b90509250925092565b6000806040838503121561103857600080fd5b61104183610f3a565b915061104f60208401610f3a565b90509250929050565b634e487b7160e01b600052604160045260246000fd5b600082601f83011261107f57600080fd5b813567ffffffffffffffff8082111561109a5761109a611058565b604051601f8301601f19908116603f011681019082821181831017156110c2576110c2611058565b816040528381528660208588010111156110db57600080fd5b836020870160208301376000602085830101528094505050505092915050565b600080600080600060a0868803121561111357600080fd5b61111c86610f3a565b945060208601359350604086013567ffffffffffffffff8082111561114057600080fd5b61114c89838a0161106e565b9450606088013591508082111561116257600080fd5b5061116f8882890161106e565b925050608086013560ff8116811461118657600080fd5b809150509295509295909350565b600181811c908216806111a857607f821691505b6020821081036111c857634e487b7160e01b600052602260045260246000fd5b50919050565b634e487b7160e01b600052601160045260246000fd5b808201808211156103f3576103f36111ce565b818103818111156103f3576103f36111ce565b601f821115610e6a57600081815260208120601f850160051c810160208610156112315750805b601f850160051c820191505b818110156112505782815560010161123d565b505050505050565b815167ffffffffffffffff81111561127257611272611058565b611286816112808454611194565b8461120a565b602080601f8311600181146112bb57600084156112a35750858301515b600019600386901b1c1916600185901b178555611250565b600085815260208120601f198616915b828110156112ea578886015182559484019460019091019084016112cb565b50858210156113085787850151600019600388901b60f8161c191681555b5050505050600190811b01905550565b80820281158282048414176103f3576103f36111ce565b60008261134c57634e487b7160e01b600052601260045260246000fd5b50049056fea2646970667358221220151b3c5db2bab85639d38a357e8b33f161dfb2f606b6192da23e3ec2bf84e78464736f6c6343000813003354484953204953204120455854454e4420544f4b454e204259205a484f555a484f55",
  "immutableReferences": {},
  "source": "pragma solidity ^0.8.19; //The ^ means that it will not compile on anything less than 0.8.0 and it will also not work with a 0.5.0 compiler.\n\nimport \"@openzeppelin/contracts/token/ERC20/ERC20.sol\";\nimport \"@openzeppelin/contracts/utils/math/SafeMath.sol\";\nimport \"@openzeppelin/contracts/access/Ownable.sol\";\nimport \"./ERC20V1Factory.sol\";\n\n\ncontract ERC20Ext is ERC20, Ownable, IStdERC20 {\n\n    address private creator;\n\n    string public __name;\n    uint8 public __decimals;\n    string public __symbol;\n    uint256 public __totalSupply;\n\n    // \n    using SafeMath for uint256; //todo\n\n    uint public feeRatio; //feeRatio/1000\n    uint public burnRatio;  //burnRatio/1000\n    address public feeAddress;  //\n\n    constructor () ERC20(\"THIS IS A EXTEND TOKEN BY ZHOUZHOU\",\"GZW\"){}\n\n    // constructor (\n    //     string memory _name,\n    //     string memory _symbol) ERC20(_name, _symbol){\n    //         name = _name;\n    //         symbol = _symbol;\n    //     }\n    \n    function set(uint _feeRatio, uint _burnRatio, address _feeAddress) public onlyOwner {\n        feeRatio = _feeRatio;\n        burnRatio = _burnRatio;\n        feeAddress = _feeAddress;\n    }\n\n    function mint(address _account, uint256 _amount) public onlyOwner {\n        _mint(_account, _amount);\n        __totalSupply += _amount;\n    }\n\n    function burn(uint256 _amount) public {\n        require(balanceOf(msg.sender) >= _amount, \"burn amout exceeds balance.\");\n        _burn(msg.sender, _amount);\n        __totalSupply -= _amount;\n    } \n\n    function transfer(address _to, uint256 _amount) public virtual override returns (bool) {\n        require(balanceOf(msg.sender) >= _amount,\"transfer amount exceeds balance.\");\n        require(feeAddress != address(0), \"feeAddress not seted.\"); //\n        require(feeRatio > 0, \"fee not seted.\"); //\n        uint256 fee = _amount.mul(feeRatio).div(1000);  //\n        uint256 burnAmount = _amount.mul(burnRatio).div(1000);  //\n        uint256 amount = _amount.sub(fee).sub(burnAmount);  //=--\n        _transfer(msg.sender, _to, amount);\n        _transfer(msg.sender, feeAddress, fee);\n        if(burnAmount > 0) {\n            _burn(msg.sender, burnAmount);\n        }\n        return true;\n    }\n\n    //  constructor\n    function init(\n        address _creator,\n        uint256 _totalSupply,\n        string memory _name,\n        string memory _symbol,\n        uint8 _decimals\n    ) external {\n        creator = _creator;\n        __totalSupply = _totalSupply;\n        //todo ERC20ERC20\n        // name\n        __name = _name;\n        // symbol\n        __symbol = _symbol;\n        // decimals\n        __decimals = _decimals;\n        \n    }\n\n}",
  "sourcePath": "/Users/zhouzhou/contract_workspace/fourth-contract-project/contracts/ERC20Ext.sol",
  "compiler": {
    "name": "solc",
    "version": "0.8.19+commit.7dd6d404.Emscripten.clang"
  },
  "schemaVersion": "3.4.13",
  "updatedAt": "2023-05-05T14:23:23.624Z",
  "networkType": "ethereum",
  "devdoc": {
    "events": {
      "Approval(address,address,uint256)": {
        "details": "Emitted when the allowance of a `spender` for an `owner` is set by a call to {approve}. `value` is the new allowance."
      },
      "Transfer(address,address,uint256)": {
        "details": "Emitted when `value` tokens are moved from one account (`from`) to another (`to`). Note that `value` may be zero."
      }
    },
    "kind": "dev",
    "methods": {
      "allowance(address,address)": {
        "details": "See {IERC20-allowance}."
      },
      "approve(address,uint256)": {
        "details": "See {IERC20-approve}. NOTE: If `amount` is the maximum `uint256`, the allowance is not updated on `transferFrom`. This is semantically equivalent to an infinite approval. Requirements: - `spender` cannot be the zero address."
      },
      "balanceOf(address)": {
        "details": "See {IERC20-balanceOf}."
      },
      "decimals()": {
        "details": "Returns the number of decimals used to get its user representation. For example, if `decimals` equals `2`, a balance of `505` tokens should be displayed to a user as `5.05` (`505 / 10 ** 2`). Tokens usually opt for a value of 18, imitating the relationship between Ether and Wei. This is the value {ERC20} uses, unless this function is overridden; NOTE: This information is only used for _display_ purposes: it in no way affects any of the arithmetic of the contract, including {IERC20-balanceOf} and {IERC20-transfer}."
      },
      "decreaseAllowance(address,uint256)": {
        "details": "Atomically decreases the allowance granted to `spender` by the caller. This is an alternative to {approve} that can be used as a mitigation for problems described in {IERC20-approve}. Emits an {Approval} event indicating the updated allowance. Requirements: - `spender` cannot be the zero address. - `spender` must have allowance for the caller of at least `subtractedValue`."
      },
      "increaseAllowance(address,uint256)": {
        "details": "Atomically increases the allowance granted to `spender` by the caller. This is an alternative to {approve} that can be used as a mitigation for problems described in {IERC20-approve}. Emits an {Approval} event indicating the updated allowance. Requirements: - `spender` cannot be the zero address."
      },
      "name()": {
        "details": "Returns the name of the token."
      },
      "owner()": {
        "details": "Returns the address of the current owner."
      },
      "renounceOwnership()": {
        "details": "Leaves the contract without owner. It will not be possible to call `onlyOwner` functions anymore. Can only be called by the current owner. NOTE: Renouncing ownership will leave the contract without an owner, thereby removing any functionality that is only available to the owner."
      },
      "symbol()": {
        "details": "Returns the symbol of the token, usually a shorter version of the name."
      },
      "totalSupply()": {
        "details": "See {IERC20-totalSupply}."
      },
      "transferFrom(address,address,uint256)": {
        "details": "See {IERC20-transferFrom}. Emits an {Approval} event indicating the updated allowance. This is not required by the EIP. See the note at the beginning of {ERC20}. NOTE: Does not update the allowance if the current allowance is the maximum `uint256`. Requirements: - `from` and `to` cannot be the zero address. - `from` must have a balance of at least `amount`. - the caller must have allowance for ``from``'s tokens of at least `amount`."
      },
      "transferOwnership(address)": {
        "details": "Transfers ownership of the contract to a new account (`newOwner`). Can only be called by the current owner."
      }
    },
    "version": 1
  },
  "userdoc": {
    "kind": "user",
    "methods": {},
    "version": 1
  }
}