{
  "contractName": "ERC20V1Factory",
  "abi": [
    {
      "inputs": [
        {
          "internalType": "address",
          "name": "cloneFactory",
          "type": "address"
        },
        {
          "internalType": "address",
          "name": "erc20Template",
          "type": "address"
        },
        {
          "internalType": "uint256",
          "name": "createFee",
          "type": "uint256"
        }
      ],
      "stateMutability": "nonpayable",
      "type": "constructor"
    },
    {
      "anonymous": false,
      "inputs": [
        {
          "indexed": false,
          "internalType": "uint256",
          "name": "newFee",
          "type": "uint256"
        }
      ],
      "name": "ChangeCreateFee",
      "type": "event"
    },
    {
      "anonymous": false,
      "inputs": [
        {
          "indexed": false,
          "internalType": "address",
          "name": "newStdTemplate",
          "type": "address"
        }
      ],
      "name": "ChangeStdTemplate",
      "type": "event"
    },
    {
      "anonymous": false,
      "inputs": [
        {
          "indexed": false,
          "internalType": "address",
          "name": "erc20",
          "type": "address"
        },
        {
          "indexed": false,
          "internalType": "address",
          "name": "creator",
          "type": "address"
        },
        {
          "indexed": false,
          "internalType": "uint256",
          "name": "erc20Type",
          "type": "uint256"
        }
      ],
      "name": "NewERC20",
      "type": "event"
    },
    {
      "anonymous": false,
      "inputs": [
        {
          "indexed": true,
          "internalType": "address",
          "name": "previousOwner",
          "type": "address"
        },
        {
          "indexed": true,
          "internalType": "address",
          "name": "newOwner",
          "type": "address"
        }
      ],
      "name": "OwnershipTransferPrepared",
      "type": "event"
    },
    {
      "anonymous": false,
      "inputs": [
        {
          "indexed": true,
          "internalType": "address",
          "name": "previousOwner",
          "type": "address"
        },
        {
          "indexed": true,
          "internalType": "address",
          "name": "newOwner",
          "type": "address"
        }
      ],
      "name": "OwnershipTransferred",
      "type": "event"
    },
    {
      "anonymous": false,
      "inputs": [
        {
          "indexed": false,
          "internalType": "address",
          "name": "account",
          "type": "address"
        },
        {
          "indexed": false,
          "internalType": "uint256",
          "name": "amount",
          "type": "uint256"
        }
      ],
      "name": "Withdraw",
      "type": "event"
    },
    {
      "stateMutability": "payable",
      "type": "fallback"
    },
    {
      "inputs": [],
      "name": "_CLONE_FACTORY_",
      "outputs": [
        {
          "internalType": "address",
          "name": "",
          "type": "address"
        }
      ],
      "stateMutability": "view",
      "type": "function"
    },
    {
      "inputs": [],
      "name": "_CREATE_FEE_",
      "outputs": [
        {
          "internalType": "uint256",
          "name": "",
          "type": "uint256"
        }
      ],
      "stateMutability": "view",
      "type": "function"
    },
    {
      "inputs": [],
      "name": "_ERC20_TEMPLATE_",
      "outputs": [
        {
          "internalType": "address",
          "name": "",
          "type": "address"
        }
      ],
      "stateMutability": "view",
      "type": "function"
    },
    {
      "inputs": [],
      "name": "_NEW_OWNER_",
      "outputs": [
        {
          "internalType": "address",
          "name": "",
          "type": "address"
        }
      ],
      "stateMutability": "view",
      "type": "function"
    },
    {
      "inputs": [],
      "name": "_OWNER_",
      "outputs": [
        {
          "internalType": "address",
          "name": "",
          "type": "address"
        }
      ],
      "stateMutability": "view",
      "type": "function"
    },
    {
      "inputs": [
        {
          "internalType": "address",
          "name": "",
          "type": "address"
        },
        {
          "internalType": "uint256",
          "name": "",
          "type": "uint256"
        }
      ],
      "name": "_USER_STD_REGISTRY_",
      "outputs": [
        {
          "internalType": "address",
          "name": "",
          "type": "address"
        }
      ],
      "stateMutability": "view",
      "type": "function"
    },
    {
      "inputs": [],
      "name": "claimOwnership",
      "outputs": [],
      "stateMutability": "nonpayable",
      "type": "function"
    },
    {
      "inputs": [
        {
          "internalType": "address",
          "name": "newOwner",
          "type": "address"
        }
      ],
      "name": "initOwner",
      "outputs": [],
      "stateMutability": "nonpayable",
      "type": "function"
    },
    {
      "inputs": [
        {
          "internalType": "address",
          "name": "newOwner",
          "type": "address"
        }
      ],
      "name": "transferOwnership",
      "outputs": [],
      "stateMutability": "nonpayable",
      "type": "function"
    },
    {
      "stateMutability": "payable",
      "type": "receive"
    },
    {
      "inputs": [
        {
          "internalType": "uint256",
          "name": "totalSupply",
          "type": "uint256"
        },
        {
          "internalType": "string",
          "name": "name",
          "type": "string"
        },
        {
          "internalType": "string",
          "name": "symbol",
          "type": "string"
        },
        {
          "internalType": "uint8",
          "name": "decimals",
          "type": "uint8"
        }
      ],
      "name": "createStdERC20",
      "outputs": [
        {
          "internalType": "address",
          "name": "newERC20",
          "type": "address"
        }
      ],
      "stateMutability": "payable",
      "type": "function"
    },
    {
      "inputs": [
        {
          "internalType": "address",
          "name": "user",
          "type": "address"
        }
      ],
      "name": "getTokenByUser",
      "outputs": [
        {
          "internalType": "address[]",
          "name": "stds",
          "type": "address[]"
        }
      ],
      "stateMutability": "view",
      "type": "function"
    },
    {
      "inputs": [
        {
          "internalType": "uint256",
          "name": "newFee",
          "type": "uint256"
        }
      ],
      "name": "changeCreateFee",
      "outputs": [],
      "stateMutability": "nonpayable",
      "type": "function"
    },
    {
      "inputs": [],
      "name": "withdraw",
      "outputs": [],
      "stateMutability": "nonpayable",
      "type": "function"
    },
    {
      "inputs": [
        {
          "internalType": "address",
          "name": "newStdTemplate",
          "type": "address"
        }
      ],
      "name": "updateStdTemplate",
      "outputs": [],
      "stateMutability": "nonpayable",
      "type": "function"
    }
  ],
  "bytecode": "0x60a060405234801561001057600080fd5b50604051610c37380380610c3783398101604081905261002f9161007a565b6001600160a01b03928316608052600280546001600160a01b03191692909316919091179091556003556100b6565b80516001600160a01b038116811461007557600080fd5b919050565b60008060006060848603121561008f57600080fd5b6100988461005e565b92506100a66020850161005e565b9150604084015190509250925092565b608051610b5f6100d86000396000818161027b01526105a80152610b5f6000f3fe6080604052600436106100d55760003560e01c80638456db1511610079578063d029d52111610056578063d029d5211461021c578063e6acc72d14610249578063eb774d0514610269578063f2fde38b1461029d57005b80638456db15146101c957806397381760146101e9578063c3223a181461020957005b806328ab047f116100b257806328ab047f1461015f57806335c70da01461017f5780633ccfd60b1461019f5780634e71e0c8146101b457005b80630d009297146100de57806316048bc4146100fe57806321235d4a1461013b57005b366100dc57005b005b3480156100ea57600080fd5b506100dc6100f9366004610875565b6102bd565b34801561010a57600080fd5b5060005461011e906001600160a01b031681565b6040516001600160a01b0390911681526020015b60405180910390f35b34801561014757600080fd5b5061015160035481565b604051908152602001610132565b34801561016b57600080fd5b506100dc61017a366004610875565b610345565b34801561018b57600080fd5b5061011e61019a366004610899565b6103c4565b3480156101ab57600080fd5b506100dc6103fc565b3480156101c057600080fd5b506100dc61048c565b3480156101d557600080fd5b5060015461011e906001600160a01b031681565b3480156101f557600080fd5b5060025461011e906001600160a01b031681565b61011e610217366004610968565b61053a565b34801561022857600080fd5b5061023c610237366004610875565b610703565b60405161013291906109ee565b34801561025557600080fd5b506100dc610264366004610a3b565b610779565b34801561027557600080fd5b5061011e7f000000000000000000000000000000000000000000000000000000000000000081565b3480156102a957600080fd5b506100dc6102b8366004610875565b6107d8565b600154600160a01b900460ff161561030f5760405162461bcd60e51b815260206004820152601060248201526f1113d113d7d25392551250531256915160821b60448201526064015b60405180910390fd5b6001805460ff60a01b1916600160a01b179055600080546001600160a01b039092166001600160a01b0319909216919091179055565b6000546001600160a01b0316331461036f5760405162461bcd60e51b815260040161030690610a54565b600280546001600160a01b0319166001600160a01b0383169081179091556040519081527fedc968a09f964f0ab07f91c96dd61bbfd3ce2b438ede9e63721d56867ea53365906020015b60405180910390a150565b600460205281600052604060002081815481106103e057600080fd5b6000918252602090912001546001600160a01b03169150829050565b6000546001600160a01b031633146104265760405162461bcd60e51b815260040161030690610a54565b6040514790339082156108fc029083906000818181858888f19350505050158015610455573d6000803e3d6000fd5b5060408051338152602081018390527f884edad9ce6fa2440d8a54cc123490eb96d2768479d49ff9c7366125a942436491016103b9565b6001546001600160a01b031633146104d65760405162461bcd60e51b815260206004820152600d60248201526c494e56414c49445f434c41494d60981b6044820152606401610306565b600154600080546040516001600160a01b0393841693909116917f8be0079c531659141344cd1fd0a4f28419497f9722a3daafe3b4186f6b6457e091a360018054600080546001600160a01b03199081166001600160a01b03841617909155169055565b60006003543410156105865760405162461bcd60e51b8152602060048201526015602482015274086a48a82a88abe8c8a8abe9c9ea8be8a9c9eaa8e9605b1b6044820152606401610306565b6002546040516340925bc760e11b81526001600160a01b0391821660048201527f000000000000000000000000000000000000000000000000000000000000000090911690638124b78e906024016020604051808303816000875af11580156105f3573d6000803e3d6000fd5b505050506040513d601f19601f820116820180604052508101906106179190610a77565b604051631f921de360e31b81529091506001600160a01b0382169063fc90ef189061064e9033908990899089908990600401610ada565b600060405180830381600087803b15801561066857600080fd5b505af115801561067c573d6000803e3d6000fd5b505033600081815260046020908152604080832080546001810182559084528284200180546001600160a01b0319166001600160a01b038916908117909155815190815291820193909352918201527f1393d5edd44c8974d9f4be5f459e4f6c6c67917e4400784fc61d8a0872a9fc389250606001905060405180910390a1949350505050565b6001600160a01b03811660009081526004602090815260409182902080548351818402810184019094528084526060939283018282801561076d57602002820191906000526020600020905b81546001600160a01b0316815260019091019060200180831161074f575b50505050509050919050565b6000546001600160a01b031633146107a35760405162461bcd60e51b815260040161030690610a54565b60038190556040518181527fe2a626dd21b2ca43b97ef589791d30517db1c9676631e68d57b444e2e1826909906020016103b9565b6000546001600160a01b031633146108025760405162461bcd60e51b815260040161030690610a54565b600080546040516001600160a01b03808516939216917fdcf55418cee3220104fef63f979ff3c4097ad240c0c43dcb33ce837748983e6291a3600180546001600160a01b0319166001600160a01b0392909216919091179055565b6001600160a01b038116811461087257600080fd5b50565b60006020828403121561088757600080fd5b81356108928161085d565b9392505050565b600080604083850312156108ac57600080fd5b82356108b78161085d565b946020939093013593505050565b634e487b7160e01b600052604160045260246000fd5b600082601f8301126108ec57600080fd5b813567ffffffffffffffff80821115610907576109076108c5565b604051601f8301601f19908116603f0116810190828211818310171561092f5761092f6108c5565b8160405283815286602085880101111561094857600080fd5b836020870160208301376000602085830101528094505050505092915050565b6000806000806080858703121561097e57600080fd5b84359350602085013567ffffffffffffffff8082111561099d57600080fd5b6109a9888389016108db565b945060408701359150808211156109bf57600080fd5b506109cc878288016108db565b925050606085013560ff811681146109e357600080fd5b939692955090935050565b6020808252825182820181905260009190848201906040850190845b81811015610a2f5783516001600160a01b031683529284019291840191600101610a0a565b50909695505050505050565b600060208284031215610a4d57600080fd5b5035919050565b6020808252600990820152682727aa2fa7aba722a960b91b604082015260600190565b600060208284031215610a8957600080fd5b81516108928161085d565b6000815180845260005b81811015610aba57602081850181015186830182015201610a9e565b506000602082860101526020601f19601f83011685010191505092915050565b60018060a01b038616815284602082015260a060408201526000610b0160a0830186610a94565b8281036060840152610b138186610a94565b91505060ff83166080830152969550505050505056fea264697066735822122076109802b64d623b7638117279337688c255843418b61b64a98facc46fca7dbd64736f6c63430008130033",
  "immutableReferences": {
    "979": [
      {
        "length": 32,
        "start": 635
      },
      {
        "length": 32,
        "start": 1448
      }
    ]
  },
  "source": "// SPDX-License-Identifier: UNLICENSED\n\n// File: contracts/lib/CloneFactory.sol\n\npragma solidity 0.8.19;\npragma experimental ABIEncoderV2;\n\ninterface ICloneFactory {\n    function clone(address prototype) external returns (address proxy);\n}\n\n// introduction of proxy mode design: https://docs.openzeppelin.com/upgrades/2.8/\n// minimum implementation of transparent proxy: https://eips.ethereum.org/EIPS/eip-1167\n\ncontract CloneFactory is ICloneFactory {\n    function clone(address prototype) external override returns (address proxy) {\n        bytes20 targetBytes = bytes20(prototype);\n        assembly {\n            let clone := mload(0x40)\n            mstore(clone, 0x3d602d80600a3d3981f3363d3d373d3d3d363d73000000000000000000000000)\n            mstore(add(clone, 0x14), targetBytes)\n            mstore(\n                add(clone, 0x28),\n                0x5af43d82803e903d91602b57fd5bf30000000000000000000000000000000000\n            )\n            proxy := create(0, clone, 0x37)\n        }\n        return proxy;\n    }\n}\n\n// File: contracts/lib/InitializableOwnable.sol\n\n\n/**\n * @title Ownable\n *\n * @notice Ownership related functions\n */\ncontract InitializableOwnable {\n    address public _OWNER_;\n    address public _NEW_OWNER_;\n    bool internal _INITIALIZED_;\n\n    // ============ Events ============\n\n    event OwnershipTransferPrepared(address indexed previousOwner, address indexed newOwner);\n\n    event OwnershipTransferred(address indexed previousOwner, address indexed newOwner);\n\n    // ============ Modifiers ============\n\n    modifier notInitialized() {\n        require(!_INITIALIZED_, \"DODO_INITIALIZED\");\n        _;\n    }\n\n    modifier onlyOwner() {\n        require(msg.sender == _OWNER_, \"NOT_OWNER\");\n        _;\n    }\n\n    // ============ Functions ============\n\n    function initOwner(address newOwner) public notInitialized {\n        _INITIALIZED_ = true;\n        _OWNER_ = newOwner;\n    }\n\n    function transferOwnership(address newOwner) public onlyOwner {\n        emit OwnershipTransferPrepared(_OWNER_, newOwner);\n        _NEW_OWNER_ = newOwner;\n    }\n\n    function claimOwnership() public {\n        require(msg.sender == _NEW_OWNER_, \"INVALID_CLAIM\");\n        emit OwnershipTransferred(_OWNER_, _NEW_OWNER_);\n        _OWNER_ = _NEW_OWNER_;\n        _NEW_OWNER_ = address(0);\n    }\n}\n\n// File: contracts/Factory/ERC20V1Factory.sol\n\ninterface IStdERC20 {\n    function init(\n        address _creator,\n        uint256 _totalSupply,\n        string memory _name,\n        string memory _symbol,\n        uint8 _decimals\n    ) external;\n}\n\n/**\n * @title ERC20V1Factory\n *\n * @notice Help user to create erc20 token\n */\ncontract ERC20V1Factory is InitializableOwnable {\n    // ============ Templates ============\n\n    address public immutable _CLONE_FACTORY_;\n    address public _ERC20_TEMPLATE_;\n    uint256 public _CREATE_FEE_;\n\n    // ============ Events ============\n    // 0 Std \n    event NewERC20(address erc20, address creator, uint256 erc20Type);\n    event ChangeCreateFee(uint256 newFee);\n    event Withdraw(address account, uint256 amount);\n    event ChangeStdTemplate(address newStdTemplate);\n\n    // ============ Registry ============\n    // creator -> token address list\n    mapping(address => address[]) public _USER_STD_REGISTRY_;\n\n    // ============ Functions ============\n\n    fallback() external payable {}\n\n    receive() external payable {}\n\n    constructor(\n        address cloneFactory,   //\n        address erc20Template,  //ERC203\n        uint256 createFee   //\n    ) {\n        _CLONE_FACTORY_ = cloneFactory;\n        _ERC20_TEMPLATE_ = erc20Template;\n        _CREATE_FEE_ = createFee;\n    }\n\n    //  _ERC20_TEMPLATE_ ERC20\n    function createStdERC20(\n        uint256 totalSupply,\n        string memory name,\n        string memory symbol,\n        uint8 decimals\n    ) external payable returns (address newERC20) {\n        require(msg.value >= _CREATE_FEE_, \"CREATE_FEE_NOT_ENOUGH\");    //_CREATE_FEE_\n        newERC20 = ICloneFactory(_CLONE_FACTORY_).clone(_ERC20_TEMPLATE_);  // \n        IStdERC20(newERC20).init(msg.sender, totalSupply, name, symbol, decimals);\n        _USER_STD_REGISTRY_[msg.sender].push(newERC20); //k v ERC20\n        emit NewERC20(newERC20, msg.sender, 0);\n    }\n\n\n    // ============ View ============\n    // \n    function getTokenByUser(address user) \n        external\n        view\n        returns (address[] memory stds)\n    {\n        return (_USER_STD_REGISTRY_[user]);\n    }\n\n    // ============ Ownable =============\n    //fee\n    function changeCreateFee(uint256 newFee) external onlyOwner {\n        _CREATE_FEE_ = newFee;\n        emit ChangeCreateFee(newFee);\n    }\n\n    //\n    function withdraw() external onlyOwner {\n        uint256 amount = address(this).balance;\n        payable(msg.sender).transfer(amount);\n        emit Withdraw(msg.sender, amount);\n    }\n\n    //\n    function updateStdTemplate(address newStdTemplate) external onlyOwner {\n        _ERC20_TEMPLATE_ = newStdTemplate;\n        emit ChangeStdTemplate(newStdTemplate);\n    }\n}",
  "sourcePath": "/Users/zhouzhou/contract_workspace/fourth-contract-project/contracts/ERC20V1Factory.sol",
  "compiler": {
    "name": "solc",
    "version": "0.8.19+commit.7dd6d404.Emscripten.clang"
  },
  "schemaVersion": "3.4.13",
  "updatedAt": "2023-05-05T07:07:43.814Z",
  "devdoc": {
    "kind": "dev",
    "methods": {},
    "title": "ERC20V1Factory",
    "version": 1
  },
  "userdoc": {
    "kind": "user",
    "methods": {},
    "notice": "Help user to create erc20 token",
    "version": 1
  }
}