{
  "contractName": "InitializableOwnable",
  "abi": [
    {
      "anonymous": false,
      "inputs": [
        {
          "indexed": true,
          "internalType": "address",
          "name": "previousOwner",
          "type": "address"
        },
        {
          "indexed": true,
          "internalType": "address",
          "name": "newOwner",
          "type": "address"
        }
      ],
      "name": "OwnershipTransferPrepared",
      "type": "event"
    },
    {
      "anonymous": false,
      "inputs": [
        {
          "indexed": true,
          "internalType": "address",
          "name": "previousOwner",
          "type": "address"
        },
        {
          "indexed": true,
          "internalType": "address",
          "name": "newOwner",
          "type": "address"
        }
      ],
      "name": "OwnershipTransferred",
      "type": "event"
    },
    {
      "inputs": [],
      "name": "_NEW_OWNER_",
      "outputs": [
        {
          "internalType": "address",
          "name": "",
          "type": "address"
        }
      ],
      "stateMutability": "view",
      "type": "function"
    },
    {
      "inputs": [],
      "name": "_OWNER_",
      "outputs": [
        {
          "internalType": "address",
          "name": "",
          "type": "address"
        }
      ],
      "stateMutability": "view",
      "type": "function"
    },
    {
      "inputs": [
        {
          "internalType": "address",
          "name": "newOwner",
          "type": "address"
        }
      ],
      "name": "initOwner",
      "outputs": [],
      "stateMutability": "nonpayable",
      "type": "function"
    },
    {
      "inputs": [
        {
          "internalType": "address",
          "name": "newOwner",
          "type": "address"
        }
      ],
      "name": "transferOwnership",
      "outputs": [],
      "stateMutability": "nonpayable",
      "type": "function"
    },
    {
      "inputs": [],
      "name": "claimOwnership",
      "outputs": [],
      "stateMutability": "nonpayable",
      "type": "function"
    }
  ],
  "bytecode": "0x608060405234801561001057600080fd5b5061030b806100206000396000f3fe608060405234801561001057600080fd5b50600436106100575760003560e01c80630d0092971461005c57806316048bc4146100715780634e71e0c8146100a05780638456db15146100a8578063f2fde38b146100bb575b600080fd5b61006f61006a3660046102a5565b6100ce565b005b600054610084906001600160a01b031681565b6040516001600160a01b03909116815260200160405180910390f35b61006f610156565b600154610084906001600160a01b031681565b61006f6100c93660046102a5565b610204565b600154600160a01b900460ff16156101205760405162461bcd60e51b815260206004820152601060248201526f1113d113d7d25392551250531256915160821b60448201526064015b60405180910390fd5b6001805460ff60a01b1916600160a01b179055600080546001600160a01b039092166001600160a01b0319909216919091179055565b6001546001600160a01b031633146101a05760405162461bcd60e51b815260206004820152600d60248201526c494e56414c49445f434c41494d60981b6044820152606401610117565b600154600080546040516001600160a01b0393841693909116917f8be0079c531659141344cd1fd0a4f28419497f9722a3daafe3b4186f6b6457e091a360018054600080546001600160a01b03199081166001600160a01b03841617909155169055565b6000546001600160a01b0316331461024a5760405162461bcd60e51b81526020600482015260096024820152682727aa2fa7aba722a960b91b6044820152606401610117565b600080546040516001600160a01b03808516939216917fdcf55418cee3220104fef63f979ff3c4097ad240c0c43dcb33ce837748983e6291a3600180546001600160a01b0319166001600160a01b0392909216919091179055565b6000602082840312156102b757600080fd5b81356001600160a01b03811681146102ce57600080fd5b939250505056fea26469706673582212207e588ec47365d76a2da86d3f02964252bcebd8b1d9c0612c32cadff5a054348764736f6c63430008130033",
  "immutableReferences": {},
  "source": "/**\n *Submitted for verification at Etherscan.io on 2022-02-21\n*/\n\n// File: contracts/lib/CloneFactory.sol\n\n/*\n\n    Copyright 2020 DODO ZOO.\n    SPDX-License-Identifier: Apache-2.0\n\n*/\n\npragma solidity 0.8.19;\npragma experimental ABIEncoderV2;\n\ninterface ICloneFactory {\n    function clone(address prototype) external returns (address proxy);\n}\n\n// introduction of proxy mode design: https://docs.openzeppelin.com/upgrades/2.8/\n// minimum implementation of transparent proxy: https://eips.ethereum.org/EIPS/eip-1167\n\ncontract CloneFactory is ICloneFactory {\n    function clone(address prototype) external override returns (address proxy) {\n        bytes20 targetBytes = bytes20(prototype);\n        assembly {\n            let clone := mload(0x40)\n            mstore(clone, 0x3d602d80600a3d3981f3363d3d373d3d3d363d73000000000000000000000000)\n            mstore(add(clone, 0x14), targetBytes)\n            mstore(\n                add(clone, 0x28),\n                0x5af43d82803e903d91602b57fd5bf30000000000000000000000000000000000\n            )\n            proxy := create(0, clone, 0x37)\n        }\n        return proxy;\n    }\n}\n\n// File: contracts/lib/InitializableOwnable.sol\n\n\n/**\n * @title Ownable\n * @author DODO Breeder\n *\n * @notice Ownership related functions\n */\ncontract InitializableOwnable {\n    address public _OWNER_;\n    address public _NEW_OWNER_;\n    bool internal _INITIALIZED_;\n\n    // ============ Events ============\n\n    event OwnershipTransferPrepared(address indexed previousOwner, address indexed newOwner);\n\n    event OwnershipTransferred(address indexed previousOwner, address indexed newOwner);\n\n    // ============ Modifiers ============\n\n    modifier notInitialized() {\n        require(!_INITIALIZED_, \"DODO_INITIALIZED\");\n        _;\n    }\n\n    modifier onlyOwner() {\n        require(msg.sender == _OWNER_, \"NOT_OWNER\");\n        _;\n    }\n\n    // ============ Functions ============\n\n    function initOwner(address newOwner) public notInitialized {\n        _INITIALIZED_ = true;\n        _OWNER_ = newOwner;\n    }\n\n    function transferOwnership(address newOwner) public onlyOwner {\n        emit OwnershipTransferPrepared(_OWNER_, newOwner);\n        _NEW_OWNER_ = newOwner;\n    }\n\n    function claimOwnership() public {\n        require(msg.sender == _NEW_OWNER_, \"INVALID_CLAIM\");\n        emit OwnershipTransferred(_OWNER_, _NEW_OWNER_);\n        _OWNER_ = _NEW_OWNER_;\n        _NEW_OWNER_ = address(0);\n    }\n}\n\n// File: contracts/Factory/ERC20V3Factory.sol\n\n\n\n\ninterface IStdERC20 {\n    function init(\n        address _creator,\n        uint256 _totalSupply,\n        string memory _name,\n        string memory _symbol,\n        uint8 _decimals\n    ) external;\n}\n\ninterface ICustomERC20 {\n    function init(\n        address _creator,\n        uint256 _initSupply,\n        string memory _name,\n        string memory _symbol,\n        uint8 _decimals,\n        uint256 _tradeBurnRatio,\n        uint256 _tradeFeeRatio,\n        address _team\n    ) external;\n}\n\n/**\n * @title DODO ERC20V2Factory\n * @author DODO Breeder\n *\n * @notice Help user to create erc20 token\n */\ncontract ERC20V3Factory is InitializableOwnable {\n    // ============ Templates ============\n\n    address public immutable _CLONE_FACTORY_;\n    address public _ERC20_TEMPLATE_;\n    address public _CUSTOM_ERC20_TEMPLATE_;\n    address public _CUSTOM_MINTABLE_ERC20_TEMPLATE_;\n    uint256 public _CREATE_FEE_;\n\n    // ============ Events ============\n    // 0 Std 1 TradeBurn or TradeFee 2 Mintable\n    event NewERC20(address erc20, address creator, uint256 erc20Type);\n    event ChangeCreateFee(uint256 newFee);\n    event Withdraw(address account, uint256 amount);\n    event ChangeStdTemplate(address newStdTemplate);\n    event ChangeCustomTemplate(address newCustomTemplate);\n    event ChangeCustomMintableTemplate(address newCustomMintableTemplate);\n\n    // ============ Registry ============\n    // creator -> token address list\n    mapping(address => address[]) public _USER_STD_REGISTRY_;\n    mapping(address => address[]) public _USER_CUSTOM_REGISTRY_;\n    mapping(address => address[]) public _USER_CUSTOM_MINTABLE_REGISTRY_;\n\n    // ============ Functions ============\n\n    fallback() external payable {}\n\n    receive() external payable {}\n\n    constructor(\n        address cloneFactory,\n        address erc20Template,\n        address customErc20Template,\n        address customMintableErc20Template,\n        uint256 createFee\n    ) public {\n        _CLONE_FACTORY_ = cloneFactory; //\n        _ERC20_TEMPLATE_ = erc20Template;   //ERC203\n        _CUSTOM_ERC20_TEMPLATE_ = customErc20Template;  //\n        _CUSTOM_MINTABLE_ERC20_TEMPLATE_ = customMintableErc20Template; //\n        _CREATE_FEE_ = createFee;   //\n    }\n\n/**\n * 33create\n */\n //  _ERC20_TEMPLATE_ ERC20\n    function createStdERC20(\n        uint256 totalSupply,\n        string memory name,\n        string memory symbol,\n        uint8 decimals\n    ) external payable returns (address newERC20) {\n        require(msg.value >= _CREATE_FEE_, \"CREATE_FEE_NOT_ENOUGH\");    //_CREATE_FEE_\n        newERC20 = ICloneFactory(_CLONE_FACTORY_).clone(_ERC20_TEMPLATE_);  // \n        IStdERC20(newERC20).init(msg.sender, totalSupply, name, symbol, decimals);  //\n        _USER_STD_REGISTRY_[msg.sender].push(newERC20); //k v ERC20\n        emit NewERC20(newERC20, msg.sender, 0);\n    }\n\n    function createCustomERC20(\n        uint256 totalSupply,\n        string memory name,\n        string memory symbol,\n        uint8 decimals,\n        uint256 tradeBurnRatio,\n        uint256 tradeFeeRatio,\n        address teamAccount\n    ) external payable returns (address newCustomERC20) {\n        require(msg.value >= _CREATE_FEE_, \"CREATE_FEE_NOT_ENOUGH\");\n        newCustomERC20 = ICloneFactory(_CLONE_FACTORY_).clone(_CUSTOM_ERC20_TEMPLATE_);\n\n        ICustomERC20(newCustomERC20).init(\n            msg.sender,\n            totalSupply, \n            name, \n            symbol, \n            decimals, \n            tradeBurnRatio, \n            tradeFeeRatio,\n            teamAccount\n        );\n\n        _USER_CUSTOM_REGISTRY_[msg.sender].push(newCustomERC20);\n        \n        emit NewERC20(newCustomERC20, msg.sender, 1);    \n    }\n\n    function createCustomMintableERC20(\n        uint256 initSupply,\n        string memory name,\n        string memory symbol,\n        uint8 decimals,\n        uint256 tradeBurnRatio,\n        uint256 tradeFeeRatio,\n        address teamAccount\n    ) external payable returns (address newCustomMintableERC20) {\n        require(msg.value >= _CREATE_FEE_, \"CREATE_FEE_NOT_ENOUGH\");\n        newCustomMintableERC20 = ICloneFactory(_CLONE_FACTORY_).clone(_CUSTOM_MINTABLE_ERC20_TEMPLATE_);\n\n        ICustomERC20(newCustomMintableERC20).init(\n            msg.sender,\n            initSupply, \n            name, \n            symbol, \n            decimals, \n            tradeBurnRatio, \n            tradeFeeRatio,\n            teamAccount\n        );\n\n        _USER_CUSTOM_MINTABLE_REGISTRY_[msg.sender].push(newCustomMintableERC20);\n        \n        emit NewERC20(newCustomMintableERC20, msg.sender, 2);    \n    }\n\n\n    // ============ View ============\n    // \n    function getTokenByUser(address user) \n        external\n        view\n        returns (address[] memory stds,address[] memory customs,address[] memory mintables)\n    {\n        return (_USER_STD_REGISTRY_[user], _USER_CUSTOM_REGISTRY_[user], _USER_CUSTOM_MINTABLE_REGISTRY_[user]);\n    }\n\n    // ============ Ownable =============\n    //fee\n    function changeCreateFee(uint256 newFee) external onlyOwner {\n        _CREATE_FEE_ = newFee;\n        emit ChangeCreateFee(newFee);\n    }\n\n    //\n    function withdraw() external onlyOwner {\n        uint256 amount = address(this).balance;\n        payable(msg.sender).transfer(amount);\n        emit Withdraw(msg.sender, amount);\n    }\n\n    /**\n     * \n     **/\n    function updateStdTemplate(address newStdTemplate) external onlyOwner {\n        _ERC20_TEMPLATE_ = newStdTemplate;\n        emit ChangeStdTemplate(newStdTemplate);\n    }\n\n    function updateCustomTemplate(address newCustomTemplate) external onlyOwner {\n        _CUSTOM_ERC20_TEMPLATE_ = newCustomTemplate;\n        emit ChangeCustomTemplate(newCustomTemplate);\n    }\n\n    function updateCustomMintableTemplate(address newCustomMintableTemplate) external onlyOwner {\n        _CUSTOM_MINTABLE_ERC20_TEMPLATE_ = newCustomMintableTemplate;\n        emit ChangeCustomMintableTemplate(newCustomMintableTemplate);\n    }\n}",
  "sourcePath": "/Users/zhouzhou/contract_workspace/fourth-contract-project/contracts/ERC20V3Factory.sol",
  "compiler": {
    "name": "solc",
    "version": "0.8.19+commit.7dd6d404.Emscripten.clang"
  },
  "schemaVersion": "3.4.13",
  "updatedAt": "2023-05-05T07:07:43.829Z",
  "devdoc": {
    "author": "DODO Breeder",
    "kind": "dev",
    "methods": {},
    "title": "Ownable",
    "version": 1
  },
  "userdoc": {
    "kind": "user",
    "methods": {},
    "notice": "Ownership related functions",
    "version": 1
  }
}